{
  "_format": "hh-sol-artifact-1",
  "contractName": "TicketGateway",
  "sourceName": "src/contracts/TicketGateway.sol",
  "abi": [
    {
      "anonymous": false,
      "inputs": [
        {
          "indexed": true,
          "internalType": "address",
          "name": "_eventHost",
          "type": "address"
        },
        {
          "indexed": true,
          "internalType": "uint256",
          "name": "eventId",
          "type": "uint256"
        },
        {
          "indexed": true,
          "internalType": "uint256",
          "name": "eventBalance",
          "type": "uint256"
        }
      ],
      "name": "PaidOut",
      "type": "event"
    },
    {
      "anonymous": false,
      "inputs": [
        {
          "indexed": true,
          "internalType": "uint256",
          "name": "eventId",
          "type": "uint256"
        }
      ],
      "name": "eventCancelled",
      "type": "event"
    },
    {
      "anonymous": false,
      "inputs": [
        {
          "indexed": true,
          "internalType": "address",
          "name": "_eventHost",
          "type": "address"
        },
        {
          "indexed": true,
          "internalType": "uint256",
          "name": "eventId",
          "type": "uint256"
        },
        {
          "indexed": true,
          "internalType": "string",
          "name": "_eventName",
          "type": "string"
        }
      ],
      "name": "eventClosed",
      "type": "event"
    },
    {
      "anonymous": false,
      "inputs": [
        {
          "indexed": true,
          "internalType": "address",
          "name": "_eventHost",
          "type": "address"
        },
        {
          "indexed": true,
          "internalType": "uint256",
          "name": "eventId",
          "type": "uint256"
        },
        {
          "indexed": true,
          "internalType": "uint256",
          "name": "_eventDateTime",
          "type": "uint256"
        }
      ],
      "name": "eventCreated",
      "type": "event"
    },
    {
      "anonymous": false,
      "inputs": [
        {
          "indexed": true,
          "internalType": "uint256",
          "name": "eventId",
          "type": "uint256"
        }
      ],
      "name": "eventSoldOut",
      "type": "event"
    },
    {
      "anonymous": false,
      "inputs": [
        {
          "indexed": true,
          "internalType": "address",
          "name": "buyer",
          "type": "address"
        },
        {
          "indexed": true,
          "internalType": "uint256",
          "name": "_ticketId",
          "type": "uint256"
        },
        {
          "indexed": true,
          "internalType": "uint256",
          "name": "eventId",
          "type": "uint256"
        }
      ],
      "name": "ticketPurchased",
      "type": "event"
    },
    {
      "anonymous": false,
      "inputs": [
        {
          "indexed": true,
          "internalType": "address",
          "name": "_eventHost",
          "type": "address"
        },
        {
          "indexed": true,
          "internalType": "uint256",
          "name": "eventId",
          "type": "uint256"
        },
        {
          "indexed": false,
          "internalType": "uint256",
          "name": "ticketId",
          "type": "uint256"
        },
        {
          "indexed": true,
          "internalType": "uint256",
          "name": "refundAmount",
          "type": "uint256"
        }
      ],
      "name": "ticketRefunded",
      "type": "event"
    },
    {
      "anonymous": false,
      "inputs": [
        {
          "indexed": true,
          "internalType": "address",
          "name": "tranferTo",
          "type": "address"
        },
        {
          "indexed": true,
          "internalType": "uint256",
          "name": "ticketId",
          "type": "uint256"
        }
      ],
      "name": "ticketTransferred",
      "type": "event"
    },
    {
      "stateMutability": "payable",
      "type": "fallback"
    },
    {
      "inputs": [
        {
          "internalType": "uint256",
          "name": "eventId",
          "type": "uint256"
        }
      ],
      "name": "cancelEvent",
      "outputs": [
        {
          "internalType": "bool",
          "name": "",
          "type": "bool"
        }
      ],
      "stateMutability": "payable",
      "type": "function"
    },
    {
      "inputs": [
        {
          "internalType": "address payable",
          "name": "_eventHost",
          "type": "address"
        },
        {
          "internalType": "string",
          "name": "_imageURL",
          "type": "string"
        },
        {
          "internalType": "string",
          "name": "_eventName",
          "type": "string"
        },
        {
          "internalType": "string",
          "name": "_venue",
          "type": "string"
        },
        {
          "internalType": "uint256",
          "name": "_eventDateTime",
          "type": "uint256"
        },
        {
          "internalType": "uint256",
          "name": "_totalTickets",
          "type": "uint256"
        },
        {
          "internalType": "uint256",
          "name": "_ticketPrice",
          "type": "uint256"
        }
      ],
      "name": "createEvent",
      "outputs": [
        {
          "internalType": "uint256",
          "name": "",
          "type": "uint256"
        }
      ],
      "stateMutability": "nonpayable",
      "type": "function"
    },
    {
      "inputs": [
        {
          "internalType": "uint256",
          "name": "",
          "type": "uint256"
        }
      ],
      "name": "eventBalance",
      "outputs": [
        {
          "internalType": "uint256",
          "name": "",
          "type": "uint256"
        }
      ],
      "stateMutability": "view",
      "type": "function"
    },
    {
      "inputs": [
        {
          "internalType": "uint256",
          "name": "",
          "type": "uint256"
        }
      ],
      "name": "eventExists",
      "outputs": [
        {
          "internalType": "bool",
          "name": "",
          "type": "bool"
        }
      ],
      "stateMutability": "view",
      "type": "function"
    },
    {
      "inputs": [
        {
          "internalType": "uint256",
          "name": "",
          "type": "uint256"
        }
      ],
      "name": "events",
      "outputs": [
        {
          "internalType": "uint256",
          "name": "eventId",
          "type": "uint256"
        },
        {
          "internalType": "address payable",
          "name": "eventHost",
          "type": "address"
        },
        {
          "internalType": "string",
          "name": "eventName",
          "type": "string"
        },
        {
          "internalType": "string",
          "name": "eventVenue",
          "type": "string"
        },
        {
          "internalType": "string",
          "name": "imageURL",
          "type": "string"
        },
        {
          "internalType": "uint256",
          "name": "timestamp",
          "type": "uint256"
        },
        {
          "internalType": "uint256",
          "name": "eventDateTime",
          "type": "uint256"
        },
        {
          "internalType": "uint256",
          "name": "totalTickets",
          "type": "uint256"
        },
        {
          "internalType": "uint256",
          "name": "soldTickets",
          "type": "uint256"
        },
        {
          "internalType": "uint256",
          "name": "ticketPrice",
          "type": "uint256"
        },
        {
          "internalType": "enum TicketGateway.Status",
          "name": "eventstatus",
          "type": "uint8"
        }
      ],
      "stateMutability": "view",
      "type": "function"
    },
    {
      "inputs": [],
      "name": "gatewayFee",
      "outputs": [
        {
          "internalType": "uint256",
          "name": "",
          "type": "uint256"
        }
      ],
      "stateMutability": "view",
      "type": "function"
    },
    {
      "inputs": [],
      "name": "gatewayOwner",
      "outputs": [
        {
          "internalType": "address payable",
          "name": "",
          "type": "address"
        }
      ],
      "stateMutability": "view",
      "type": "function"
    },
    {
      "inputs": [
        {
          "internalType": "address",
          "name": "buyer",
          "type": "address"
        }
      ],
      "name": "getBuyerToTicketIds",
      "outputs": [
        {
          "internalType": "uint256[]",
          "name": "",
          "type": "uint256[]"
        }
      ],
      "stateMutability": "view",
      "type": "function"
    },
    {
      "inputs": [
        {
          "internalType": "uint256",
          "name": "eventId",
          "type": "uint256"
        }
      ],
      "name": "getEvent",
      "outputs": [
        {
          "components": [
            {
              "internalType": "uint256",
              "name": "eventId",
              "type": "uint256"
            },
            {
              "internalType": "address payable",
              "name": "eventHost",
              "type": "address"
            },
            {
              "internalType": "string",
              "name": "eventName",
              "type": "string"
            },
            {
              "internalType": "string",
              "name": "eventVenue",
              "type": "string"
            },
            {
              "internalType": "string",
              "name": "imageURL",
              "type": "string"
            },
            {
              "internalType": "uint256",
              "name": "timestamp",
              "type": "uint256"
            },
            {
              "internalType": "uint256",
              "name": "eventDateTime",
              "type": "uint256"
            },
            {
              "internalType": "uint256",
              "name": "totalTickets",
              "type": "uint256"
            },
            {
              "internalType": "uint256",
              "name": "soldTickets",
              "type": "uint256"
            },
            {
              "internalType": "uint256",
              "name": "ticketPrice",
              "type": "uint256"
            },
            {
              "internalType": "uint256[]",
              "name": "ticketId",
              "type": "uint256[]"
            },
            {
              "internalType": "enum TicketGateway.Status",
              "name": "eventstatus",
              "type": "uint8"
            }
          ],
          "internalType": "struct TicketGateway.Event",
          "name": "",
          "type": "tuple"
        }
      ],
      "stateMutability": "view",
      "type": "function"
    },
    {
      "inputs": [
        {
          "internalType": "uint256",
          "name": "eventId",
          "type": "uint256"
        }
      ],
      "name": "getEventBalance",
      "outputs": [
        {
          "internalType": "uint256",
          "name": "",
          "type": "uint256"
        }
      ],
      "stateMutability": "view",
      "type": "function"
    },
    {
      "inputs": [
        {
          "internalType": "uint256",
          "name": "eventId",
          "type": "uint256"
        }
      ],
      "name": "getEventToTicketIds",
      "outputs": [
        {
          "internalType": "uint256[]",
          "name": "",
          "type": "uint256[]"
        }
      ],
      "stateMutability": "view",
      "type": "function"
    },
    {
      "inputs": [
        {
          "internalType": "address",
          "name": "eventHost",
          "type": "address"
        }
      ],
      "name": "getHostToEventIds",
      "outputs": [
        {
          "internalType": "uint256[]",
          "name": "",
          "type": "uint256[]"
        }
      ],
      "stateMutability": "view",
      "type": "function"
    },
    {
      "inputs": [
        {
          "internalType": "uint256",
          "name": "ticketId",
          "type": "uint256"
        }
      ],
      "name": "getTicket",
      "outputs": [
        {
          "components": [
            {
              "internalType": "uint256",
              "name": "ticketQty",
              "type": "uint256"
            },
            {
              "internalType": "uint256",
              "name": "timestamp",
              "type": "uint256"
            },
            {
              "internalType": "uint256",
              "name": "totalTickets",
              "type": "uint256"
            },
            {
              "internalType": "uint256",
              "name": "soldTickets",
              "type": "uint256"
            },
            {
              "internalType": "uint256",
              "name": "ticketPrice",
              "type": "uint256"
            },
            {
              "internalType": "uint256[]",
              "name": "ticketId",
              "type": "uint256[]"
            },
            {
              "internalType": "enum TicketGateway.TicketStatus",
              "name": "ticketstatus",
              "type": "uint8"
            }
          ],
          "internalType": "struct TicketGateway.Ticket",
          "name": "",
          "type": "tuple"
        }
      ],
      "stateMutability": "view",
      "type": "function"
    },
    {
      "inputs": [
        {
          "internalType": "uint256",
          "name": "ticketId",
          "type": "uint256"
        }
      ],
      "name": "getTicketHolders",
      "outputs": [
        {
          "internalType": "address",
          "name": "",
          "type": "address"
        }
      ],
      "stateMutability": "view",
      "type": "function"
    },
    {
      "inputs": [
        {
          "internalType": "uint256",
          "name": "eventId",
          "type": "uint256"
        }
      ],
      "name": "isEventExists",
      "outputs": [
        {
          "internalType": "bool",
          "name": "",
          "type": "bool"
        }
      ],
      "stateMutability": "view",
      "type": "function"
    },
    {
      "inputs": [
        {
          "internalType": "uint256",
          "name": "eventId",
          "type": "uint256"
        }
      ],
      "name": "isEventSoldOut",
      "outputs": [
        {
          "internalType": "bool",
          "name": "",
          "type": "bool"
        }
      ],
      "stateMutability": "nonpayable",
      "type": "function"
    },
    {
      "inputs": [
        {
          "internalType": "uint256",
          "name": "eventId",
          "type": "uint256"
        },
        {
          "internalType": "uint256",
          "name": "_ticketQty",
          "type": "uint256"
        }
      ],
      "name": "purchaseTicket",
      "outputs": [
        {
          "internalType": "bool",
          "name": "",
          "type": "bool"
        },
        {
          "internalType": "uint256",
          "name": "",
          "type": "uint256"
        }
      ],
      "stateMutability": "payable",
      "type": "function"
    },
    {
      "inputs": [
        {
          "internalType": "uint256",
          "name": "ticketId",
          "type": "uint256"
        },
        {
          "internalType": "uint256",
          "name": "eventId",
          "type": "uint256"
        },
        {
          "internalType": "uint256",
          "name": "ticketQty",
          "type": "uint256"
        }
      ],
      "name": "refundTicketHolders",
      "outputs": [
        {
          "internalType": "bool",
          "name": "",
          "type": "bool"
        }
      ],
      "stateMutability": "nonpayable",
      "type": "function"
    },
    {
      "inputs": [
        {
          "internalType": "uint256",
          "name": "",
          "type": "uint256"
        }
      ],
      "name": "ticketHolders",
      "outputs": [
        {
          "internalType": "address",
          "name": "",
          "type": "address"
        }
      ],
      "stateMutability": "view",
      "type": "function"
    },
    {
      "inputs": [
        {
          "internalType": "uint256",
          "name": "ticketId",
          "type": "uint256"
        },
        {
          "internalType": "address payable",
          "name": "transferTo",
          "type": "address"
        }
      ],
      "name": "transferTicket",
      "outputs": [
        {
          "internalType": "bool",
          "name": "",
          "type": "bool"
        }
      ],
      "stateMutability": "nonpayable",
      "type": "function"
    },
    {
      "inputs": [
        {
          "internalType": "uint256",
          "name": "eventId",
          "type": "uint256"
        }
      ],
      "name": "withdrawEventBalance",
      "outputs": [
        {
          "internalType": "bool",
          "name": "",
          "type": "bool"
        }
      ],
      "stateMutability": "nonpayable",
      "type": "function"
    },
    {
      "stateMutability": "payable",
      "type": "receive"
    }
  ],
  "bytecode": "0x608060405234801561001057600080fd5b50612f9a806100206000396000f3fe60806040526004361061012c5760003560e01c80637dc379fa116100ab578063b310fa501161006f578063b310fa5014610400578063b61c7dc114610420578063bdbbb0cb14610440578063c09353141461046a578063d19d4f8d1461048a578063f362f334146104aa57610136565b80637dc379fa1461032a5780637e0abcf7146103575780639c067c321461036d5780639cbe78af146103a3578063a3c28dfc146103d057610136565b806363b9e1ad116100f257806363b9e1ad14610270578063679ebf1a146102905780636d1884e0146102b05780636e9b1812146102dd5780636fd042021461030a57610136565b80622a5cc91461017b578062a4a18e146101b85780630b791430146101e65780633f69babd1461021d57806348192a081461024057610136565b3661013657600080fd5b60405162461bcd60e51b81526020600482015260156024820152742330b6363130b1b5903737ba1030b63637bbb2b21760591b60448201526064015b60405180910390fd5b34801561018757600080fd5b5061019b6101963660046128c8565b6104ca565b6040516001600160a01b0390911681526020015b60405180910390f35b3480156101c457600080fd5b506101d86101d3366004612999565b610542565b6040519081526020016101af565b3480156101f257600080fd5b506102066102013660046128c8565b610963565b6040516101af9b9a99989796959493929190612ac6565b61023061022b3660046128c8565b610b5f565b60405190151581526020016101af565b34801561024c57600080fd5b5061023061025b3660046128c8565b60009081526004602052604090205460ff1690565b34801561027c57600080fd5b5060005461019b906001600160a01b031681565b34801561029c57600080fd5b506102306102ab366004612b5a565b6110aa565b3480156102bc57600080fd5b506102d06102cb3660046128c8565b611325565b6040516101af9190612bc5565b3480156102e957600080fd5b506102fd6102f83660046128c8565b61160a565b6040516101af9190612cc4565b34801561031657600080fd5b506102306103253660046128c8565b61169b565b34801561033657600080fd5b5061034a6103453660046128c8565b61173e565b6040516101af9190612cde565b34801561036357600080fd5b506101d860015481565b34801561037957600080fd5b5061019b6103883660046128c8565b6006602052600090815260409020546001600160a01b031681565b3480156103af57600080fd5b506101d86103be3660046128c8565b60096020526000908152604090205481565b3480156103dc57600080fd5b506102306103eb3660046128c8565b60046020526000908152604090205460ff1681565b34801561040c57600080fd5b506102fd61041b366004612d54565b61180e565b34801561042c57600080fd5b5061023061043b3660046128c8565b6118de565b61045361044e366004612d71565b611b40565b6040805192151583526020830191909152016101af565b34801561047657600080fd5b506101d86104853660046128c8565b6120a5565b34801561049657600080fd5b506102fd6104a5366004612d54565b6120e6565b3480156104b657600080fd5b506102306104c5366004612d93565b6121b6565b6000818152600660205260408120546001600160a01b03166105265760405162461bcd60e51b8152602060048201526015602482015274151a58dad95d08191bd95cc81b9bdd08195e1a5cdd605a1b6044820152606401610172565b506000908152600660205260409020546001600160a01b031690565b60004284116105935760405162461bcd60e51b815260206004820181905260248201527f4576656e742064617465206d75737420626520696e20746865206675747572656044820152606401610172565b60008651116105dd5760405162461bcd60e51b81526020600482015260166024820152754e616d65206d757374206e6f7420626520656d70747960501b6044820152606401610172565b60008751116106385760405162461bcd60e51b815260206004820152602160248201527f4576656e74206d757374206861766520616e20696d616765206f7220466c79656044820152603960f91b6064820152608401610172565b6000831161069e5760405162461bcd60e51b815260206004820152602d60248201527f546f74616c207469636b65747320666f72206576656e742073686f756c64206260448201526c065206d6f7265207468616e203609c1b6064820152608401610172565b600082116106ee5760405162461bcd60e51b815260206004820152601960248201527f41646420707269636520666f7220746865207469636b657473000000000000006044820152606401610172565b604080516020808201869052605f60f81b82840181905260418301889052606183015260608b901b6bffffffffffffffffffffffff191660628301528251605681840301815260768301808552815191909201206101f6830190935282815233609683015260b6820189905260d6820188905260f682018a9052426101168301526101368201879052610156820186905260006101768301526101968201859052906101b6018567ffffffffffffffff8111156107ad576107ad6128f6565b6040519080825280602002602001820160405280156107d6578160200160208202803683370190505b5081526020016000905260008281526002602081815260409283902084518155848201516001820180546001600160a01b0319166001600160a01b039092169190911790559284015180516108329385019291909101906126d8565b506060820151805161084e9160038401916020909101906126d8565b506080820151805161086a9160048401916020909101906126d8565b5060a0820151600582015560c0820151600682015560e082015160078201556101008201516008820155610120820151600982015561014082015180516108bb91600a84019160209091019061275c565b50610160820151600b8201805460ff191660018360038111156108e0576108e0612a9c565b021790555050506001600160a01b0389166000818152600860209081526040808320805460018181018355918552838520018690558584526004909252808320805460ff1916909217909155518792849290917f67afa6d8bf9bd1d19ddfd065aebdc46c5517b7d967a18c39df3fcb4c9aa166a49190a498975050505050505050565b600260208190526000918252604090912080546001820154928201805491936001600160a01b0316929161099690612dbf565b80601f01602080910402602001604051908101604052809291908181526020018280546109c290612dbf565b8015610a0f5780601f106109e457610100808354040283529160200191610a0f565b820191906000526020600020905b8154815290600101906020018083116109f257829003601f168201915b505050505090806003018054610a2490612dbf565b80601f0160208091040260200160405190810160405280929190818152602001828054610a5090612dbf565b8015610a9d5780601f10610a7257610100808354040283529160200191610a9d565b820191906000526020600020905b815481529060010190602001808311610a8057829003601f168201915b505050505090806004018054610ab290612dbf565b80601f0160208091040260200160405190810160405280929190818152602001828054610ade90612dbf565b8015610b2b5780601f10610b0057610100808354040283529160200191610b2b565b820191906000526020600020905b815481529060010190602001808311610b0e57829003601f168201915b50505060058401546006850154600786015460088701546009880154600b9098015496979396929550909350919060ff168b565b60008181526004602052604081205460ff16610b8d5760405162461bcd60e51b815260040161017290612dfa565b60036000838152600260205260409020600b015460ff166003811115610bb557610bb5612a9c565b1415610bf55760405162461bcd60e51b815260206004820152600f60248201526e115d995b9d081a5cc818db1bdcd959608a1b6044820152606401610172565b6000828152600260205260409020600101546001600160a01b03163314610c6a5760405162461bcd60e51b8152602060048201526024808201527f4f6e6c79206576656e7420686f73742063616e2063616e63656c2074686520656044820152631d995b9d60e21b6064820152608401610172565b6000805b600084815260076020526040902054811015610cfa576000848152600760205260408120805483908110610ca457610ca4612e28565b600091825260208083209091015487835260028252604080842060090154828552600390935290922054919250610cda91612e54565b610ce49084612e73565b9250508080610cf290612e8b565b915050610c6e565b50600083815260096020526040902054811115610d6f5760405162461bcd60e51b815260206004820152602d60248201527f4e6f7420656e6f7567682066756e647320746f20726566756e6420616c6c207460448201526c69636b657420686f6c6465727360981b6064820152608401610172565b600083815260026020526040808220600b01805460ff191660011790555184917f26fb8e8563dfc1345305a9dc37c6d58637bf55df7caf4f7c9e64bd2d40f6a26191a260005b600084815260076020526040902054811015610f6b576000848152600760205260408120805483908110610deb57610deb612e28565b60009182526020808320909101548083526006825260408084205489855260028452818520600901548386526003909452908420549194506001600160a01b03169291610e3791612e54565b6040519091506001600160a01b0383169082156108fc029083906000818181858888f19350505050158015610e70573d6000803e3d6000fd5b50600083815260036020908152604080832060068101805460ff1916600290811790915590548b855292528220600701805491929091610eb1908490612e73565b90915550506000838152600360209081526040808320548a845260029092528220600801805491929091610ee6908490612ea6565b909155505060008781526009602052604081208054839290610f09908490612ea6565b925050819055508087836001600160a01b03167fa419a688f638397c5490b0a9d6ff824035762e52bbb4f371145e07a1309492d586604051610f4d91815260200190565b60405180910390a45050508080610f6390612e8b565b915050610db5565b50600083815260026020819052604082208281556001810180546001600160a01b03191690559190610f9f90830182612796565b610fad600383016000612796565b610fbb600483016000612796565b60058201600090556006820160009055600782016000905560088201600090556009820160009055600a82016000610ff391906127d3565b50600b01805460ff199081169091556000848152600460209081526040808320805490941690935533825260089052908120905b8154811015611088578482828154811061104357611043612e28565b906000526020600020015414156110765781818154811061106657611066612e28565b6000918252602082200155611088565b8061108081612e8b565b915050611027565b5060008481526007602052604081206110a0916127d3565b5060019392505050565b6000828152600660205260408120546001600160a01b031633146111105760405162461bcd60e51b815260206004820152601c60248201527f5469636b657420686f6c64657220646f6573206e6f74206d61746368000000006044820152606401610172565b3360009081526005602052604090205461116c5760405162461bcd60e51b815260206004820152601c60248201527f5469636b657420686f6c64657220646f6573206e6f74206578697374000000006044820152606401610172565b6000838152600660205260409020546001600160a01b03838116911614156111e55760405162461bcd60e51b815260206004820152602660248201527f596f752063616e6e6f74207472616e73666572207469636b657420746f20796f6044820152653ab939b2b63360d11b6064820152608401610172565b6000838152600660205260408120546001600160a01b0316905b6001600160a01b0382166000908152600560205260409020548110156112a9576001600160a01b038216600090815260056020526040902080548691908390811061124c5761124c612e28565b90600052602060002001541415611297576001600160a01b038216600090815260056020526040902080548290811061128757611287612e28565b60009182526020822001556112a9565b806112a181612e8b565b9150506111ff565b50600084815260066020908152604080832080546001600160a01b0319166001600160a01b0388169081179091558084526005835281842080546001810182559085529284209092018790555186927fa0e344de922284f478ae6b3677f82700b304a600be6e8ebbc6e4784741046e3491a35060019392505050565b61132d6127f1565b60008281526004602052604090205460ff1661135b5760405162461bcd60e51b815260040161017290612dfa565b6000828152600260208181526040928390208351610180810185528154815260018201546001600160a01b031692810192909252918201805491938401916113a290612dbf565b80601f01602080910402602001604051908101604052809291908181526020018280546113ce90612dbf565b801561141b5780601f106113f05761010080835404028352916020019161141b565b820191906000526020600020905b8154815290600101906020018083116113fe57829003601f168201915b5050505050815260200160038201805461143490612dbf565b80601f016020809104026020016040519081016040528092919081815260200182805461146090612dbf565b80156114ad5780601f10611482576101008083540402835291602001916114ad565b820191906000526020600020905b81548152906001019060200180831161149057829003601f168201915b505050505081526020016004820180546114c690612dbf565b80601f01602080910402602001604051908101604052809291908181526020018280546114f290612dbf565b801561153f5780601f106115145761010080835404028352916020019161153f565b820191906000526020600020905b81548152906001019060200180831161152257829003601f168201915b505050505081526020016005820154815260200160068201548152602001600782015481526020016008820154815260200160098201548152602001600a82018054806020026020016040519081016040528092919081815260200182805480156115c957602002820191906000526020600020905b8154815260200190600101908083116115b5575b5050509183525050600b82015460209091019060ff1660038111156115f0576115f0612a9c565b600381111561160157611601612a9c565b90525092915050565b60008181526004602052604090205460609060ff1661163b5760405162461bcd60e51b815260040161017290612dfa565b6000828152600760209081526040918290208054835181840281018401909452808452909183018282801561168f57602002820191906000526020600020905b81548152602001906001019080831161167b575b50505050509050919050565b60008181526004602052604081205460ff166116c95760405162461bcd60e51b815260040161017290612dfa565b600082815260026020526040902060078101546008909101541415611736576000828152600260208190526040808320600b01805460ff19169092179091555183917f4a982678a4e0b3e133791c6882f2e1f2f56ccd96fcd0f313ee38114b74ec9c9091a2506001919050565b506000919050565b61174661286b565b600082815260036020818152604092839020835160e08101855281548152600182015481840152600282015481860152928101546060840152600481015460808401526005810180548551818502810185019096528086529394919360a08601938301828280156117d657602002820191906000526020600020905b8154815260200190600101908083116117c2575b5050509183525050600682015460209091019060ff1660028111156117fd576117fd612a9c565b600281111561160157611601612a9c565b6001600160a01b0381166000908152600560205260409020546060906118765760405162461bcd60e51b815260206004820152601c60248201527f5469636b657420686f6c64657220646f6573206e6f74206578697374000000006044820152606401610172565b6001600160a01b0382166000908152600560209081526040918290208054835181840281018401909452808452909183018282801561168f576020028201919060005260206000209081548152602001906001019080831161167b5750505050509050919050565b60008181526004602052604081205460ff1661190c5760405162461bcd60e51b815260040161017290612dfa565b6000828152600960205260409020546119375760405162461bcd60e51b815260040161017290612ebd565b336000908152600860205260409020546119935760405162461bcd60e51b815260206004820152601f60248201527f596f7520617265206e6f74206120686f7374206f6620616e79206576656e74006044820152606401610172565b6000805b336000908152600860205260409020548110156119fe573360009081526008602052604090208054859190839081106119d2576119d2612e28565b906000526020600020015414156119ec57600191506119fe565b806119f681612e8b565b915050611997565b5080611a5d5760405162461bcd60e51b815260206004820152602860248201527f4f6e6c79206576656e7420686f73742063616e207769746864726177207468656044820152672062616c616e636560c01b6064820152608401610172565b600083815260096020526040812080549190556064611a7d826005612e54565b611a879190612ee9565b6001819055600090611a999083612ea6565b604051909150339082156108fc029083906000818181858888f19350505050158015611ac9573d6000803e3d6000fd5b50600080546001546040516001600160a01b039092169281156108fc029290818181858888f19350505050158015611b05573d6000803e3d6000fd5b506040518290869033907f7ca7469714f3e1d8732b3a67b0599fba3be82b826137fcfa805c19afc2b20aeb90600090a4506001949350505050565b600082815260046020526040812054819060ff16611b705760405162461bcd60e51b815260040161017290612dfa565b60036000858152600260205260409020600b015460ff166003811115611b9857611b98612a9c565b1415611bd85760405162461bcd60e51b815260206004820152600f60248201526e115d995b9d081a5cc818db1bdcd959608a1b6044820152606401610172565b6000848152600260205260408120600b015460ff166003811115611bfe57611bfe612a9c565b14611c595760405162461bcd60e51b815260206004820152602560248201527f4576656e74206973206e6f74206f70656e20666f72207469636b657420707572604482015264636861736560d81b6064820152608401610172565b600084815260026020526040902060070154611cab5760405162461bcd60e51b8152602060048201526011602482015270115d995b9d081a5cc81cdbdb19081bdd5d607a1b6044820152606401610172565b60008311611ccb5760405162461bcd60e51b815260040161017290612f0b565b6000848152600260205260409020600101546001600160a01b0316331415611d415760405162461bcd60e51b815260206004820152602360248201527f596f752063616e6e6f7420707572636861736520796f7572206f776e207469636044820152621ad95d60ea1b6064820152608401610172565b60026000858152600260205260409020600b015460ff166003811115611d6957611d69612a9c565b1415611dab5760405162461bcd60e51b8152602060048201526011602482015270115d995b9d081a5cc81cdbdb19081bdd5d607a1b6044820152606401610172565b600084815260026020526040812060090154611dc8908590612e54565b604080516020808201899052605f60f81b828401819052426041840152606183015260628201889052602d60f81b60828301523360601b6bffffffffffffffffffffffff19166083830152825160778184030181526097909201909252805191012090915034821115611e4d5760405162461bcd60e51b815260040161017290612ebd565b6040805160e08101825286815242602080830191909152600089815260028083528482206007810154858701526008810154606086015260098101546080860152918b90528252600a018054845181840281018401909552808552929360a08501939092830182828015611ee057602002820191906000526020600020905b815481526020019060010190808311611ecc575b505050918352505060200160009052600082815260036020818152604092839020845181558482015160018201559284015160028401556060840151918301919091556080830151600483015560a08301518051611f44926005850192019061275c565b5060c082015160068201805460ff19166001836002811115611f6857611f68612a9c565b0217905550505060008681526002602052604081206008018054879290611f90908490612e73565b909155505060008681526002602052604081206007018054879290611fb6908490612ea6565b9091555050604051339083156108fc029084906000818181858888f19350505050158015611fe8573d6000803e3d6000fd5b50336000818152600560209081526040808320805460018181018355918552838520018690558584526006835281842080546001600160a01b0319169095179094558983526007825280832080549485018155835281832090930184905588825260099052205461205a908390612e73565b6000878152600960205260408082209290925590518791839133917f85d3e9c14472d7c819268bcf0278e69840a51696eeec82f8e09c3fc1fa3a2f8b91a46001969095509350505050565b60008181526004602052604081205460ff166120d35760405162461bcd60e51b815260040161017290612dfa565b5060009081526009602052604090205490565b6001600160a01b03811660009081526008602052604090205460609061214e5760405162461bcd60e51b815260206004820152601d60248201527f486f737420646f6573206e6f74206861766520616e79206576656e74730000006044820152606401610172565b6001600160a01b0382166000908152600860209081526040918290208054835181840281018401909452808452909183018282801561168f576020028201919060005260206000209081548152602001906001019080831161167b5750505050509050919050565b600082815260076020526040812054158015906121f9575060036000848152600260205260409020600b015460ff1660038111156121f6576121f6612a9c565b14155b6122565760405162461bcd60e51b815260206004820152602860248201527f5469636b657420646f6573206e6f74206578697374206f72204576656e7420696044820152671cc818db1bdcd95960c21b6064820152608401610172565b60008381526002602052604090206006015461227490610708612e73565b4211156122e95760405162461bcd60e51b815260206004820152603760248201527f4576656e742063616e6e6f7420626520726566756e646564206166746572203360448201527f30206d696e75746573207374617274696e672074696d650000000000000000006064820152608401610172565b6000848152600660205260409020546001600160a01b03166123415760405162461bcd60e51b8152602060048201526011602482015270125b9d985b1a59081d1a58dad95d081251607a1b6044820152606401610172565b600082116123615760405162461bcd60e51b815260040161017290612f0b565b6000848152600660205260409020546001600160a01b03163381146123c85760405162461bcd60e51b815260206004820152601c60248201527f5469636b657420686f6c64657220646f6573206e6f74206d61746368000000006044820152606401610172565b6000848152600260205260408120600901546123e49085612e54565b6000868152600960205260409020549091508111156124155760405162461bcd60e51b815260040161017290612ebd565b6001600160a01b0382166000908152600560205260408120905b81548110156124e4578782828154811061244b5761244b612e28565b906000526020600020015414156124d2578154829061246c90600190612ea6565b8154811061247c5761247c612e28565b906000526020600020015482828154811061249957612499612e28565b9060005260206000200181905550818054806124b7576124b7612f4e565b600190038181906000526020600020016000905590556124e4565b806124dc81612e8b565b91505061242f565b506000868152600760205260408120905b81548110156125aa578882828154811061251157612511612e28565b90600052602060002001541415612598578154829061253290600190612ea6565b8154811061254257612542612e28565b906000526020600020015482828154811061255f5761255f612e28565b90600052602060002001819055508180548061257d5761257d612f4e565b600190038181906000526020600020016000905590556125aa565b806125a281612e8b565b9150506124f5565b50600088815260066020908152604080832080546001600160a01b03191690558983526009909152812080548592906125e4908490612ea6565b90915550506000878152600260205260408120600801805488929061260a908490612ea6565b909155505060008781526002602052604081206007018054889290612630908490612e73565b9091555050600088815260036020526040808220600601805460ff19166002179055516001600160a01b038616916108fc861502918691818181858888f19350505050158015612684573d6000803e3d6000fd5b508287856001600160a01b03167fa419a688f638397c5490b0a9d6ff824035762e52bbb4f371145e07a1309492d58b6040516126c291815260200190565b60405180910390a4506001979650505050505050565b8280546126e490612dbf565b90600052602060002090601f016020900481019282612706576000855561274c565b82601f1061271f57805160ff191683800117855561274c565b8280016001018555821561274c579182015b8281111561274c578251825591602001919060010190612731565b506127589291506128b3565b5090565b82805482825590600052602060002090810192821561274c579160200282018281111561274c578251825591602001919060010190612731565b5080546127a290612dbf565b6000825580601f106127b2575050565b601f0160209004906000526020600020908101906127d091906128b3565b50565b50805460008255906000526020600020908101906127d091906128b3565b6040518061018001604052806000815260200160006001600160a01b031681526020016060815260200160608152602001606081526020016000815260200160008152602001600081526020016000815260200160008152602001606081526020016000600381111561286657612866612a9c565b905290565b6040518060e001604052806000815260200160008152602001600081526020016000815260200160008152602001606081526020016000600281111561286657612866612a9c565b5b8082111561275857600081556001016128b4565b6000602082840312156128da57600080fd5b5035919050565b6001600160a01b03811681146127d057600080fd5b634e487b7160e01b600052604160045260246000fd5b600082601f83011261291d57600080fd5b813567ffffffffffffffff80821115612938576129386128f6565b604051601f8301601f19908116603f01168101908282118183101715612960576129606128f6565b8160405283815286602085880101111561297957600080fd5b836020870160208301376000602085830101528094505050505092915050565b600080600080600080600060e0888a0312156129b457600080fd5b87356129bf816128e1565b9650602088013567ffffffffffffffff808211156129dc57600080fd5b6129e88b838c0161290c565b975060408a01359150808211156129fe57600080fd5b612a0a8b838c0161290c565b965060608a0135915080821115612a2057600080fd5b50612a2d8a828b0161290c565b979a969950949760808101359660a0820135965060c090910135945092505050565b6000815180845260005b81811015612a7557602081850181015186830182015201612a59565b81811115612a87576000602083870101525b50601f01601f19169290920160200192915050565b634e487b7160e01b600052602160045260246000fd5b60048110612ac257612ac2612a9c565b9052565b8b81526001600160a01b038b16602082015261016060408201819052600090612af18382018d612a4f565b90508281036060840152612b05818c612a4f565b90508281036080840152612b19818b612a4f565b9150508760a08301528660c08301528560e08301528461010083015283610120830152612b4a610140830184612ab2565b9c9b505050505050505050505050565b60008060408385031215612b6d57600080fd5b823591506020830135612b7f816128e1565b809150509250929050565b600081518084526020808501945080840160005b83811015612bba57815187529582019590820190600101612b9e565b509495945050505050565b602081528151602082015260006020830151612bec60408401826001600160a01b03169052565b506040830151610180806060850152612c096101a0850183612a4f565b91506060850151601f1980868503016080870152612c278483612a4f565b935060808701519150808685030160a0870152612c448483612a4f565b935060a087015160c087015260c087015160e087015260e08701519150610100828188015280880151925050610120828188015280880151925050610140828188015280880151925050610160818786030181880152612ca48584612b8a565b94508088015192505050612cba82860182612ab2565b5090949350505050565b602081526000612cd76020830184612b8a565b9392505050565b6020815281516020820152602082015160408201526040820151606082015260608201516080820152608082015160a0820152600060a083015160e060c0840152612d2d610100840182612b8a565b905060c084015160038110612d4457612d44612a9c565b60e0939093019290925250919050565b600060208284031215612d6657600080fd5b8135612cd7816128e1565b60008060408385031215612d8457600080fd5b50508035926020909101359150565b600080600060608486031215612da857600080fd5b505081359360208301359350604090920135919050565b600181811c90821680612dd357607f821691505b60208210811415612df457634e487b7160e01b600052602260045260246000fd5b50919050565b602080825260149082015273115d995b9d08191bd95cc81b9bdd08195e1a5cdd60621b604082015260600190565b634e487b7160e01b600052603260045260246000fd5b634e487b7160e01b600052601160045260246000fd5b6000816000190483118215151615612e6e57612e6e612e3e565b500290565b60008219821115612e8657612e86612e3e565b500190565b6000600019821415612e9f57612e9f612e3e565b5060010190565b600082821015612eb857612eb8612e3e565b500390565b602080825260129082015271496e73756666696369656e742066756e647360701b604082015260600190565b600082612f0657634e487b7160e01b600052601260045260246000fd5b500490565b60208082526023908201527f5469636b6574207175616e74697479206d757374206265206d6f72652074686160408201526206e20360ec1b606082015260800190565b634e487b7160e01b600052603160045260246000fdfea2646970667358221220c5467297114f5fbd146c1f130ef67861a91259c96001edc824cb577dc00219be64736f6c634300080b0033",
  "linkReferences": {},
  "deployedLinkReferences": {}
}